{
  "contractName": "CustomToken",
  "abi": [
    {
      "inputs": [
        {
          "internalType": "string",
          "name": "_name",
          "type": "string"
        },
        {
          "internalType": "string",
          "name": "_symbol",
          "type": "string"
        },
        {
          "internalType": "uint256",
          "name": "_totalSupply",
          "type": "uint256"
        }
      ],
      "stateMutability": "nonpayable",
      "type": "constructor"
    },
    {
      "anonymous": false,
      "inputs": [
        {
          "indexed": true,
          "internalType": "address",
          "name": "owner",
          "type": "address"
        },
        {
          "indexed": true,
          "internalType": "address",
          "name": "spender",
          "type": "address"
        },
        {
          "indexed": false,
          "internalType": "uint256",
          "name": "value",
          "type": "uint256"
        }
      ],
      "name": "Approval",
      "type": "event"
    },
    {
      "anonymous": false,
      "inputs": [
        {
          "indexed": true,
          "internalType": "address",
          "name": "from",
          "type": "address"
        },
        {
          "indexed": true,
          "internalType": "address",
          "name": "to",
          "type": "address"
        },
        {
          "indexed": false,
          "internalType": "uint256",
          "name": "value",
          "type": "uint256"
        }
      ],
      "name": "Transfer",
      "type": "event"
    },
    {
      "inputs": [
        {
          "internalType": "address",
          "name": "owner",
          "type": "address"
        },
        {
          "internalType": "address",
          "name": "spender",
          "type": "address"
        }
      ],
      "name": "allowance",
      "outputs": [
        {
          "internalType": "uint256",
          "name": "",
          "type": "uint256"
        }
      ],
      "stateMutability": "view",
      "type": "function",
      "constant": true
    },
    {
      "inputs": [
        {
          "internalType": "address",
          "name": "spender",
          "type": "address"
        },
        {
          "internalType": "uint256",
          "name": "amount",
          "type": "uint256"
        }
      ],
      "name": "approve",
      "outputs": [
        {
          "internalType": "bool",
          "name": "",
          "type": "bool"
        }
      ],
      "stateMutability": "nonpayable",
      "type": "function"
    },
    {
      "inputs": [
        {
          "internalType": "address",
          "name": "account",
          "type": "address"
        }
      ],
      "name": "balanceOf",
      "outputs": [
        {
          "internalType": "uint256",
          "name": "",
          "type": "uint256"
        }
      ],
      "stateMutability": "view",
      "type": "function",
      "constant": true
    },
    {
      "inputs": [],
      "name": "decimals",
      "outputs": [
        {
          "internalType": "uint8",
          "name": "",
          "type": "uint8"
        }
      ],
      "stateMutability": "view",
      "type": "function",
      "constant": true
    },
    {
      "inputs": [
        {
          "internalType": "address",
          "name": "spender",
          "type": "address"
        },
        {
          "internalType": "uint256",
          "name": "subtractedValue",
          "type": "uint256"
        }
      ],
      "name": "decreaseAllowance",
      "outputs": [
        {
          "internalType": "bool",
          "name": "",
          "type": "bool"
        }
      ],
      "stateMutability": "nonpayable",
      "type": "function"
    },
    {
      "inputs": [
        {
          "internalType": "address",
          "name": "spender",
          "type": "address"
        },
        {
          "internalType": "uint256",
          "name": "addedValue",
          "type": "uint256"
        }
      ],
      "name": "increaseAllowance",
      "outputs": [
        {
          "internalType": "bool",
          "name": "",
          "type": "bool"
        }
      ],
      "stateMutability": "nonpayable",
      "type": "function"
    },
    {
      "inputs": [],
      "name": "name",
      "outputs": [
        {
          "internalType": "string",
          "name": "",
          "type": "string"
        }
      ],
      "stateMutability": "view",
      "type": "function",
      "constant": true
    },
    {
      "inputs": [],
      "name": "owner",
      "outputs": [
        {
          "internalType": "address",
          "name": "",
          "type": "address"
        }
      ],
      "stateMutability": "view",
      "type": "function",
      "constant": true
    },
    {
      "inputs": [],
      "name": "symbol",
      "outputs": [
        {
          "internalType": "string",
          "name": "",
          "type": "string"
        }
      ],
      "stateMutability": "view",
      "type": "function",
      "constant": true
    },
    {
      "inputs": [],
      "name": "totalSupply",
      "outputs": [
        {
          "internalType": "uint256",
          "name": "",
          "type": "uint256"
        }
      ],
      "stateMutability": "view",
      "type": "function",
      "constant": true
    },
    {
      "inputs": [
        {
          "internalType": "address",
          "name": "recipient",
          "type": "address"
        },
        {
          "internalType": "uint256",
          "name": "amount",
          "type": "uint256"
        }
      ],
      "name": "transfer",
      "outputs": [
        {
          "internalType": "bool",
          "name": "",
          "type": "bool"
        }
      ],
      "stateMutability": "nonpayable",
      "type": "function"
    },
    {
      "inputs": [
        {
          "internalType": "address",
          "name": "sender",
          "type": "address"
        },
        {
          "internalType": "address",
          "name": "recipient",
          "type": "address"
        },
        {
          "internalType": "uint256",
          "name": "amount",
          "type": "uint256"
        }
      ],
      "name": "transferFrom",
      "outputs": [
        {
          "internalType": "bool",
          "name": "",
          "type": "bool"
        }
      ],
      "stateMutability": "nonpayable",
      "type": "function"
    },
    {
      "inputs": [],
      "name": "mintMinerReward",
      "outputs": [],
      "stateMutability": "nonpayable",
      "type": "function"
    },
    {
      "inputs": [
        {
          "internalType": "uint256",
          "name": "_amount",
          "type": "uint256"
        }
      ],
      "name": "setBlockReward",
      "outputs": [],
      "stateMutability": "nonpayable",
      "type": "function"
    },
    {
      "inputs": [],
      "name": "destroy",
      "outputs": [],
      "stateMutability": "nonpayable",
      "type": "function"
    }
  ],
  "bytecode": "0x60806040523480156200001157600080fd5b50604051620025af380380620025af83398181016040528101906200003791906200053c565b828281600390805190602001906200005192919062000403565b5080600490805190602001906200006a92919062000403565b50505033600560006101000a81548173ffffffffffffffffffffffffffffffffffffffff021916908373ffffffffffffffffffffffffffffffffffffffff160217905550620000c03382620000c960201b60201c565b50505062000936565b600073ffffffffffffffffffffffffffffffffffffffff168273ffffffffffffffffffffffffffffffffffffffff1614156200013c576040517f08c379a0000000000000000000000000000000000000000000000000000000008152600401620001339062000705565b60405180910390fd5b62000150600083836200024260201b60201c565b8060026000828254620001649190620007bc565b92505081905550806000808473ffffffffffffffffffffffffffffffffffffffff1673ffffffffffffffffffffffffffffffffffffffff1681526020019081526020016000206000828254620001bb9190620007bc565b925050819055508173ffffffffffffffffffffffffffffffffffffffff16600073ffffffffffffffffffffffffffffffffffffffff167fddf252ad1be2c89b69c2b068fc378daa952ba7f163c4a11628f55a4df523b3ef8360405162000222919062000727565b60405180910390a36200023e60008383620003f960201b60201c565b5050565b6200025a838383620003fe60201b62000a2f1760201c565b600073ffffffffffffffffffffffffffffffffffffffff168373ffffffffffffffffffffffffffffffffffffffff1614156200032957600560009054906101000a900473ffffffffffffffffffffffffffffffffffffffff1673ffffffffffffffffffffffffffffffffffffffff163373ffffffffffffffffffffffffffffffffffffffff161462000323576040517f08c379a00000000000000000000000000000000000000000000000000000000081526004016200031a90620006c1565b60405180910390fd5b620003f4565b600073ffffffffffffffffffffffffffffffffffffffff168273ffffffffffffffffffffffffffffffffffffffff161415620003f357600560009054906101000a900473ffffffffffffffffffffffffffffffffffffffff1673ffffffffffffffffffffffffffffffffffffffff163373ffffffffffffffffffffffffffffffffffffffff1614620003f2576040517f08c379a0000000000000000000000000000000000000000000000000000000008152600401620003e990620006e3565b60405180910390fd5b5b5b505050565b505050565b505050565b828054620004119062000859565b90600052602060002090601f01602090048101928262000435576000855562000481565b82601f106200045057805160ff191683800117855562000481565b8280016001018555821562000481579182015b828111156200048057825182559160200191906001019062000463565b5b50905062000490919062000494565b5090565b5b80821115620004af57600081600090555060010162000495565b5090565b6000620004ca620004c48462000778565b62000744565b905082815260208101848484011115620004e357600080fd5b620004f084828562000823565b509392505050565b600082601f8301126200050a57600080fd5b81516200051c848260208601620004b3565b91505092915050565b60008151905062000536816200091c565b92915050565b6000806000606084860312156200055257600080fd5b600084015167ffffffffffffffff8111156200056d57600080fd5b6200057b86828701620004f8565b935050602084015167ffffffffffffffff8111156200059957600080fd5b620005a786828701620004f8565b9250506040620005ba8682870162000525565b9150509250925092565b6000620005d3602483620007ab565b91507f4f6e6c79206f776e65722063616e206d696e7420746f6b656e7320696e69746960008301527f616c6c79000000000000000000000000000000000000000000000000000000006020830152604082019050919050565b60006200063b601a83620007ab565b91507f4f6e6c79206f776e65722063616e206275726e20746f6b656e730000000000006000830152602082019050919050565b60006200067d601f83620007ab565b91507f45524332303a206d696e7420746f20746865207a65726f2061646472657373006000830152602082019050919050565b620006bb8162000819565b82525050565b60006020820190508181036000830152620006dc81620005c4565b9050919050565b60006020820190508181036000830152620006fe816200062c565b9050919050565b6000602082019050818103600083015262000720816200066e565b9050919050565b60006020820190506200073e6000830184620006b0565b92915050565b6000604051905081810181811067ffffffffffffffff821117156200076e576200076d620008ed565b5b8060405250919050565b600067ffffffffffffffff821115620007965762000795620008ed565b5b601f19601f8301169050602081019050919050565b600082825260208201905092915050565b6000620007c98262000819565b9150620007d68362000819565b9250827fffffffffffffffffffffffffffffffffffffffffffffffffffffffffffffffff038211156200080e576200080d6200088f565b5b828201905092915050565b6000819050919050565b60005b838110156200084357808201518184015260208101905062000826565b8381111562000853576000848401525b50505050565b600060028204905060018216806200087257607f821691505b60208210811415620008895762000888620008be565b5b50919050565b7f4e487b7100000000000000000000000000000000000000000000000000000000600052601160045260246000fd5b7f4e487b7100000000000000000000000000000000000000000000000000000000600052602260045260246000fd5b7f4e487b7100000000000000000000000000000000000000000000000000000000600052604160045260246000fd5b620009278162000819565b81146200093357600080fd5b50565b611c6980620009466000396000f3fe608060405234801561001057600080fd5b50600436106100f55760003560e01c806370a0823111610097578063a457c2d711610066578063a457c2d714610276578063a9059cbb146102a6578063d63c88a6146102d6578063dd62ed3e146102e0576100f5565b806370a082311461020057806383197ef0146102305780638da5cb5b1461023a57806395d89b4114610258576100f5565b80631a18e707116100d35780631a18e7071461016657806323b872dd14610182578063313ce567146101b257806339509351146101d0576100f5565b806306fdde03146100fa578063095ea7b31461011857806318160ddd14610148575b600080fd5b610102610310565b60405161010f9190611852565b60405180910390f35b610132600480360381019061012d919061126c565b6103a2565b60405161013f9190611837565b60405180910390f35b6101506103c0565b60405161015d9190611a34565b60405180910390f35b610180600480360381019061017b91906112a8565b6103ca565b005b61019c6004803603810190610197919061121d565b610464565b6040516101a99190611837565b60405180910390f35b6101ba61055c565b6040516101c79190611a4f565b60405180910390f35b6101ea60048036038101906101e5919061126c565b610565565b6040516101f79190611837565b60405180910390f35b61021a600480360381019061021591906111b8565b610611565b6040516102279190611a34565b60405180910390f35b610238610659565b005b610242610724565b60405161024f919061181c565b60405180910390f35b61026061074a565b60405161026d9190611852565b60405180910390f35b610290600480360381019061028b919061126c565b6107dc565b60405161029d9190611837565b60405180910390f35b6102c060048036038101906102bb919061126c565b6108c7565b6040516102cd9190611837565b60405180910390f35b6102de6108e5565b005b6102fa60048036038101906102f591906111e1565b6109a8565b6040516103079190611a34565b60405180910390f35b60606003805461031f90611b64565b80601f016020809104026020016040519081016040528092919081815260200182805461034b90611b64565b80156103985780601f1061036d57610100808354040283529160200191610398565b820191906000526020600020905b81548152906001019060200180831161037b57829003601f168201915b5050505050905090565b60006103b66103af610a34565b8484610a3c565b6001905092915050565b6000600254905090565b600560009054906101000a900473ffffffffffffffffffffffffffffffffffffffff1673ffffffffffffffffffffffffffffffffffffffff163373ffffffffffffffffffffffffffffffffffffffff161461045a576040517f08c379a000000000000000000000000000000000000000000000000000000000815260040161045190611894565b60405180910390fd5b8060068190555050565b6000610471848484610c07565b6000600160008673ffffffffffffffffffffffffffffffffffffffff1673ffffffffffffffffffffffffffffffffffffffff16815260200190815260200160002060006104bc610a34565b73ffffffffffffffffffffffffffffffffffffffff1673ffffffffffffffffffffffffffffffffffffffff1681526020019081526020016000205490508281101561053c576040517f08c379a000000000000000000000000000000000000000000000000000000000815260040161053390611994565b60405180910390fd5b61055085610548610a34565b858403610a3c565b60019150509392505050565b60006012905090565b6000610607610572610a34565b848460016000610580610a34565b73ffffffffffffffffffffffffffffffffffffffff1673ffffffffffffffffffffffffffffffffffffffff16815260200190815260200160002060008873ffffffffffffffffffffffffffffffffffffffff1673ffffffffffffffffffffffffffffffffffffffff168152602001908152602001600020546106029190611a86565b610a3c565b6001905092915050565b60008060008373ffffffffffffffffffffffffffffffffffffffff1673ffffffffffffffffffffffffffffffffffffffff168152602001908152602001600020549050919050565b600560009054906101000a900473ffffffffffffffffffffffffffffffffffffffff1673ffffffffffffffffffffffffffffffffffffffff163373ffffffffffffffffffffffffffffffffffffffff16146106e9576040517f08c379a00000000000000000000000000000000000000000000000000000000081526004016106e090611954565b60405180910390fd5b600560009054906101000a900473ffffffffffffffffffffffffffffffffffffffff1673ffffffffffffffffffffffffffffffffffffffff16ff5b600560009054906101000a900473ffffffffffffffffffffffffffffffffffffffff1681565b60606004805461075990611b64565b80601f016020809104026020016040519081016040528092919081815260200182805461078590611b64565b80156107d25780601f106107a7576101008083540402835291602001916107d2565b820191906000526020600020905b8154815290600101906020018083116107b557829003601f168201915b5050505050905090565b600080600160006107eb610a34565b73ffffffffffffffffffffffffffffffffffffffff1673ffffffffffffffffffffffffffffffffffffffff16815260200190815260200160002060008573ffffffffffffffffffffffffffffffffffffffff1673ffffffffffffffffffffffffffffffffffffffff168152602001908152602001600020549050828110156108a8576040517f08c379a000000000000000000000000000000000000000000000000000000000815260040161089f906119f4565b60405180910390fd5b6108bc6108b3610a34565b85858403610a3c565b600191505092915050565b60006108db6108d4610a34565b8484610c07565b6001905092915050565b60006006541161092a576040517f08c379a000000000000000000000000000000000000000000000000000000000815260040161092190611914565b60405180910390fd5b600073ffffffffffffffffffffffffffffffffffffffff164173ffffffffffffffffffffffffffffffffffffffff16141561099a576040517f08c379a0000000000000000000000000000000000000000000000000000000008152600401610991906118d4565b60405180910390fd5b6109a641600654610e88565b565b6000600160008473ffffffffffffffffffffffffffffffffffffffff1673ffffffffffffffffffffffffffffffffffffffff16815260200190815260200160002060008373ffffffffffffffffffffffffffffffffffffffff1673ffffffffffffffffffffffffffffffffffffffff16815260200190815260200160002054905092915050565b505050565b600033905090565b600073ffffffffffffffffffffffffffffffffffffffff168373ffffffffffffffffffffffffffffffffffffffff161415610aac576040517f08c379a0000000000000000000000000000000000000000000000000000000008152600401610aa3906119d4565b60405180910390fd5b600073ffffffffffffffffffffffffffffffffffffffff168273ffffffffffffffffffffffffffffffffffffffff161415610b1c576040517f08c379a0000000000000000000000000000000000000000000000000000000008152600401610b13906118b4565b60405180910390fd5b80600160008573ffffffffffffffffffffffffffffffffffffffff1673ffffffffffffffffffffffffffffffffffffffff16815260200190815260200160002060008473ffffffffffffffffffffffffffffffffffffffff1673ffffffffffffffffffffffffffffffffffffffff168152602001908152602001600020819055508173ffffffffffffffffffffffffffffffffffffffff168373ffffffffffffffffffffffffffffffffffffffff167f8c5be1e5ebec7d5bd14f71427d1e84f3dd0314c0f7b2291e5b200ac8c7c3b92583604051610bfa9190611a34565b60405180910390a3505050565b600073ffffffffffffffffffffffffffffffffffffffff168373ffffffffffffffffffffffffffffffffffffffff161415610c77576040517f08c379a0000000000000000000000000000000000000000000000000000000008152600401610c6e906119b4565b60405180910390fd5b600073ffffffffffffffffffffffffffffffffffffffff168273ffffffffffffffffffffffffffffffffffffffff161415610ce7576040517f08c379a0000000000000000000000000000000000000000000000000000000008152600401610cde90611874565b60405180910390fd5b610cf2838383610fe8565b60008060008573ffffffffffffffffffffffffffffffffffffffff1673ffffffffffffffffffffffffffffffffffffffff16815260200190815260200160002054905081811015610d78576040517f08c379a0000000000000000000000000000000000000000000000000000000008152600401610d6f906118f4565b60405180910390fd5b8181036000808673ffffffffffffffffffffffffffffffffffffffff1673ffffffffffffffffffffffffffffffffffffffff16815260200190815260200160002081905550816000808573ffffffffffffffffffffffffffffffffffffffff1673ffffffffffffffffffffffffffffffffffffffff1681526020019081526020016000206000828254610e0b9190611a86565b925050819055508273ffffffffffffffffffffffffffffffffffffffff168473ffffffffffffffffffffffffffffffffffffffff167fddf252ad1be2c89b69c2b068fc378daa952ba7f163c4a11628f55a4df523b3ef84604051610e6f9190611a34565b60405180910390a3610e82848484611189565b50505050565b600073ffffffffffffffffffffffffffffffffffffffff168273ffffffffffffffffffffffffffffffffffffffff161415610ef8576040517f08c379a0000000000000000000000000000000000000000000000000000000008152600401610eef90611a14565b60405180910390fd5b610f0460008383610fe8565b8060026000828254610f169190611a86565b92505081905550806000808473ffffffffffffffffffffffffffffffffffffffff1673ffffffffffffffffffffffffffffffffffffffff1681526020019081526020016000206000828254610f6b9190611a86565b925050819055508173ffffffffffffffffffffffffffffffffffffffff16600073ffffffffffffffffffffffffffffffffffffffff167fddf252ad1be2c89b69c2b068fc378daa952ba7f163c4a11628f55a4df523b3ef83604051610fd09190611a34565b60405180910390a3610fe460008383611189565b5050565b610ff3838383610a2f565b600073ffffffffffffffffffffffffffffffffffffffff168373ffffffffffffffffffffffffffffffffffffffff1614156110bd57600560009054906101000a900473ffffffffffffffffffffffffffffffffffffffff1673ffffffffffffffffffffffffffffffffffffffff163373ffffffffffffffffffffffffffffffffffffffff16146110b8576040517f08c379a00000000000000000000000000000000000000000000000000000000081526004016110af90611934565b60405180910390fd5b611184565b600073ffffffffffffffffffffffffffffffffffffffff168273ffffffffffffffffffffffffffffffffffffffff16141561118357600560009054906101000a900473ffffffffffffffffffffffffffffffffffffffff1673ffffffffffffffffffffffffffffffffffffffff163373ffffffffffffffffffffffffffffffffffffffff1614611182576040517f08c379a000000000000000000000000000000000000000000000000000000000815260040161117990611974565b60405180910390fd5b5b5b505050565b505050565b60008135905061119d81611c05565b92915050565b6000813590506111b281611c1c565b92915050565b6000602082840312156111ca57600080fd5b60006111d88482850161118e565b91505092915050565b600080604083850312156111f457600080fd5b60006112028582860161118e565b92505060206112138582860161118e565b9150509250929050565b60008060006060848603121561123257600080fd5b60006112408682870161118e565b93505060206112518682870161118e565b9250506040611262868287016111a3565b9150509250925092565b6000806040838503121561127f57600080fd5b600061128d8582860161118e565b925050602061129e858286016111a3565b9150509250929050565b6000602082840312156112ba57600080fd5b60006112c8848285016111a3565b91505092915050565b6112da81611adc565b82525050565b6112e981611aee565b82525050565b60006112fa82611a6a565b6113048185611a75565b9350611314818560208601611b31565b61131d81611bf4565b840191505092915050565b6000611335602383611a75565b91507f45524332303a207472616e7366657220746f20746865207a65726f206164647260008301527f65737300000000000000000000000000000000000000000000000000000000006020830152604082019050919050565b600061139b601f83611a75565b91507f4f6e6c79206f776e65722063616e2073657420626c6f636b20726577617264006000830152602082019050919050565b60006113db602283611a75565b91507f45524332303a20617070726f766520746f20746865207a65726f20616464726560008301527f73730000000000000000000000000000000000000000000000000000000000006020830152604082019050919050565b6000611441601c83611a75565b91507f4d696e657220616464726573732063616e6e6f74206265207a65726f000000006000830152602082019050919050565b6000611481602683611a75565b91507f45524332303a207472616e7366657220616d6f756e742065786365656473206260008301527f616c616e636500000000000000000000000000000000000000000000000000006020830152604082019050919050565b60006114e7601483611a75565b91507f426c6f636b20726577617264206e6f74207365740000000000000000000000006000830152602082019050919050565b6000611527602483611a75565b91507f4f6e6c79206f776e65722063616e206d696e7420746f6b656e7320696e69746960008301527f616c6c79000000000000000000000000000000000000000000000000000000006020830152604082019050919050565b600061158d602383611a75565b91507f4f6e6c79206f776e65722063616e2064657374726f792074686520636f6e747260008301527f61637400000000000000000000000000000000000000000000000000000000006020830152604082019050919050565b60006115f3601a83611a75565b91507f4f6e6c79206f776e65722063616e206275726e20746f6b656e730000000000006000830152602082019050919050565b6000611633602883611a75565b91507f45524332303a207472616e7366657220616d6f756e742065786365656473206160008301527f6c6c6f77616e63650000000000000000000000000000000000000000000000006020830152604082019050919050565b6000611699602583611a75565b91507f45524332303a207472616e736665722066726f6d20746865207a65726f20616460008301527f64726573730000000000000000000000000000000000000000000000000000006020830152604082019050919050565b60006116ff602483611a75565b91507f45524332303a20617070726f76652066726f6d20746865207a65726f2061646460008301527f72657373000000000000000000000000000000000000000000000000000000006020830152604082019050919050565b6000611765602583611a75565b91507f45524332303a2064656372656173656420616c6c6f77616e63652062656c6f7760008301527f207a65726f0000000000000000000000000000000000000000000000000000006020830152604082019050919050565b60006117cb601f83611a75565b91507f45524332303a206d696e7420746f20746865207a65726f2061646472657373006000830152602082019050919050565b61180781611b1a565b82525050565b61181681611b24565b82525050565b600060208201905061183160008301846112d1565b92915050565b600060208201905061184c60008301846112e0565b92915050565b6000602082019050818103600083015261186c81846112ef565b905092915050565b6000602082019050818103600083015261188d81611328565b9050919050565b600060208201905081810360008301526118ad8161138e565b9050919050565b600060208201905081810360008301526118cd816113ce565b9050919050565b600060208201905081810360008301526118ed81611434565b9050919050565b6000602082019050818103600083015261190d81611474565b9050919050565b6000602082019050818103600083015261192d816114da565b9050919050565b6000602082019050818103600083015261194d8161151a565b9050919050565b6000602082019050818103600083015261196d81611580565b9050919050565b6000602082019050818103600083015261198d816115e6565b9050919050565b600060208201905081810360008301526119ad81611626565b9050919050565b600060208201905081810360008301526119cd8161168c565b9050919050565b600060208201905081810360008301526119ed816116f2565b9050919050565b60006020820190508181036000830152611a0d81611758565b9050919050565b60006020820190508181036000830152611a2d816117be565b9050919050565b6000602082019050611a4960008301846117fe565b92915050565b6000602082019050611a64600083018461180d565b92915050565b600081519050919050565b600082825260208201905092915050565b6000611a9182611b1a565b9150611a9c83611b1a565b9250827fffffffffffffffffffffffffffffffffffffffffffffffffffffffffffffffff03821115611ad157611ad0611b96565b5b828201905092915050565b6000611ae782611afa565b9050919050565b60008115159050919050565b600073ffffffffffffffffffffffffffffffffffffffff82169050919050565b6000819050919050565b600060ff82169050919050565b60005b83811015611b4f578082015181840152602081019050611b34565b83811115611b5e576000848401525b50505050565b60006002820490506001821680611b7c57607f821691505b60208210811415611b9057611b8f611bc5565b5b50919050565b7f4e487b7100000000000000000000000000000000000000000000000000000000600052601160045260246000fd5b7f4e487b7100000000000000000000000000000000000000000000000000000000600052602260045260246000fd5b6000601f19601f8301169050919050565b611c0e81611adc565b8114611c1957600080fd5b50565b611c2581611b1a565b8114611c3057600080fd5b5056fea2646970667358221220aab54193607c5164e8bd0196bad804f62d81e7e528bf696fe7cfb84b13b2f0b764736f6c63430008000033",
  "immutableReferences": {},
  "source": "// SPDX-License-Identifier: MIT\r\npragma solidity ^0.8.0;\r\n\r\nimport \"@openzeppelin/contracts/token/ERC20/ERC20.sol\";\r\n\r\ncontract CustomToken is ERC20 {\r\n    address public owner;\r\n    uint256 private blockReward;\r\n\r\n    constructor(string memory _name, string memory _symbol, uint256 _totalSupply) ERC20(_name, _symbol) {\r\n        owner = msg.sender;\r\n        _mint(msg.sender, _totalSupply);\r\n    }\r\n\r\n    function mintMinerReward() external {\r\n    require(blockReward > 0, \"Block reward not set\");\r\n    require(block.coinbase != address(0), \"Miner address cannot be zero\");\r\n    _mint(block.coinbase, blockReward);\r\n    }\r\n\r\n\r\n    function _beforeTokenTransfer(address from, address to, uint256 amount) internal override {\r\n        super._beforeTokenTransfer(from, to, amount);\r\n        if (from == address(0)) {\r\n            // Minting new tokens\r\n            require(msg.sender == owner, \"Only owner can mint tokens initially\");\r\n        } else if (to == address(0)) {\r\n            // Burning tokens\r\n            require(msg.sender == owner, \"Only owner can burn tokens\");\r\n        }\r\n    }\r\n\r\n    function setBlockReward(uint256 _amount) external {\r\n        require(msg.sender == owner, \"Only owner can set block reward\");\r\n        blockReward = _amount;\r\n    }\r\n\r\n    function destroy() external {\r\n        require(msg.sender == owner, \"Only owner can destroy the contract\");\r\n        selfdestruct(payable(owner));\r\n    }\r\n}\r\n",
  "sourcePath": "C:\\Users\\\\test721\\contracts\\CustomToken .sol",
  "compiler": {
    "name": "solc",
    "version": "0.8.0+commit.c7dfd78e.Emscripten.clang"
  },
  "schemaVersion": "3.4.16",
  "updatedAt": "2024-02-20T16:35:52.749Z",
  "networkType": "ethereum",
  "devdoc": {
    "kind": "dev",
    "methods": {
      "allowance(address,address)": {
        "details": "See {IERC20-allowance}."
      },
      "approve(address,uint256)": {
        "details": "See {IERC20-approve}. Requirements: - `spender` cannot be the zero address."
      },
      "balanceOf(address)": {
        "details": "See {IERC20-balanceOf}."
      },
      "decimals()": {
        "details": "Returns the number of decimals used to get its user representation. For example, if `decimals` equals `2`, a balance of `505` tokens should be displayed to a user as `5.05` (`505 / 10 ** 2`). Tokens usually opt for a value of 18, imitating the relationship between Ether and Wei. This is the value {ERC20} uses, unless this function is overridden; NOTE: This information is only used for _display_ purposes: it in no way affects any of the arithmetic of the contract, including {IERC20-balanceOf} and {IERC20-transfer}."
      },
      "decreaseAllowance(address,uint256)": {
        "details": "Atomically decreases the allowance granted to `spender` by the caller. This is an alternative to {approve} that can be used as a mitigation for problems described in {IERC20-approve}. Emits an {Approval} event indicating the updated allowance. Requirements: - `spender` cannot be the zero address. - `spender` must have allowance for the caller of at least `subtractedValue`."
      },
      "increaseAllowance(address,uint256)": {
        "details": "Atomically increases the allowance granted to `spender` by the caller. This is an alternative to {approve} that can be used as a mitigation for problems described in {IERC20-approve}. Emits an {Approval} event indicating the updated allowance. Requirements: - `spender` cannot be the zero address."
      },
      "name()": {
        "details": "Returns the name of the token."
      },
      "symbol()": {
        "details": "Returns the symbol of the token, usually a shorter version of the name."
      },
      "totalSupply()": {
        "details": "See {IERC20-totalSupply}."
      },
      "transfer(address,uint256)": {
        "details": "See {IERC20-transfer}. Requirements: - `recipient` cannot be the zero address. - the caller must have a balance of at least `amount`."
      },
      "transferFrom(address,address,uint256)": {
        "details": "See {IERC20-transferFrom}. Emits an {Approval} event indicating the updated allowance. This is not required by the EIP. See the note at the beginning of {ERC20}. Requirements: - `sender` and `recipient` cannot be the zero address. - `sender` must have a balance of at least `amount`. - the caller must have allowance for ``sender``'s tokens of at least `amount`."
      }
    },
    "version": 1
  },
  "userdoc": {
    "kind": "user",
    "methods": {},
    "version": 1
  }
}