{
  "contractName": "MyNFT",
  "abi": [
    {
      "inputs": [
        {
          "internalType": "string",
          "name": "name",
          "type": "string"
        },
        {
          "internalType": "string",
          "name": "symbol",
          "type": "string"
        }
      ],
      "stateMutability": "nonpayable",
      "type": "constructor"
    },
    {
      "anonymous": false,
      "inputs": [
        {
          "indexed": true,
          "internalType": "address",
          "name": "owner",
          "type": "address"
        },
        {
          "indexed": true,
          "internalType": "address",
          "name": "approved",
          "type": "address"
        },
        {
          "indexed": true,
          "internalType": "uint256",
          "name": "tokenId",
          "type": "uint256"
        }
      ],
      "name": "Approval",
      "type": "event"
    },
    {
      "anonymous": false,
      "inputs": [
        {
          "indexed": true,
          "internalType": "address",
          "name": "owner",
          "type": "address"
        },
        {
          "indexed": true,
          "internalType": "address",
          "name": "operator",
          "type": "address"
        },
        {
          "indexed": false,
          "internalType": "bool",
          "name": "approved",
          "type": "bool"
        }
      ],
      "name": "ApprovalForAll",
      "type": "event"
    },
    {
      "anonymous": false,
      "inputs": [
        {
          "indexed": true,
          "internalType": "address",
          "name": "from",
          "type": "address"
        },
        {
          "indexed": true,
          "internalType": "address",
          "name": "to",
          "type": "address"
        },
        {
          "indexed": true,
          "internalType": "uint256",
          "name": "tokenId",
          "type": "uint256"
        }
      ],
      "name": "Transfer",
      "type": "event"
    },
    {
      "inputs": [
        {
          "internalType": "address",
          "name": "to",
          "type": "address"
        },
        {
          "internalType": "uint256",
          "name": "tokenId",
          "type": "uint256"
        }
      ],
      "name": "approve",
      "outputs": [],
      "stateMutability": "nonpayable",
      "type": "function"
    },
    {
      "inputs": [
        {
          "internalType": "address",
          "name": "owner",
          "type": "address"
        }
      ],
      "name": "balanceOf",
      "outputs": [
        {
          "internalType": "uint256",
          "name": "",
          "type": "uint256"
        }
      ],
      "stateMutability": "view",
      "type": "function"
    },
    {
      "inputs": [
        {
          "internalType": "uint256",
          "name": "tokenId",
          "type": "uint256"
        }
      ],
      "name": "getApproved",
      "outputs": [
        {
          "internalType": "address",
          "name": "",
          "type": "address"
        }
      ],
      "stateMutability": "view",
      "type": "function"
    },
    {
      "inputs": [
        {
          "internalType": "address",
          "name": "owner",
          "type": "address"
        },
        {
          "internalType": "address",
          "name": "operator",
          "type": "address"
        }
      ],
      "name": "isApprovedForAll",
      "outputs": [
        {
          "internalType": "bool",
          "name": "",
          "type": "bool"
        }
      ],
      "stateMutability": "view",
      "type": "function"
    },
    {
      "inputs": [],
      "name": "name",
      "outputs": [
        {
          "internalType": "string",
          "name": "",
          "type": "string"
        }
      ],
      "stateMutability": "view",
      "type": "function"
    },
    {
      "inputs": [
        {
          "internalType": "uint256",
          "name": "tokenId",
          "type": "uint256"
        }
      ],
      "name": "ownerOf",
      "outputs": [
        {
          "internalType": "address",
          "name": "",
          "type": "address"
        }
      ],
      "stateMutability": "view",
      "type": "function"
    },
    {
      "inputs": [
        {
          "internalType": "address",
          "name": "from",
          "type": "address"
        },
        {
          "internalType": "address",
          "name": "to",
          "type": "address"
        },
        {
          "internalType": "uint256",
          "name": "tokenId",
          "type": "uint256"
        }
      ],
      "name": "safeTransferFrom",
      "outputs": [],
      "stateMutability": "nonpayable",
      "type": "function"
    },
    {
      "inputs": [
        {
          "internalType": "address",
          "name": "from",
          "type": "address"
        },
        {
          "internalType": "address",
          "name": "to",
          "type": "address"
        },
        {
          "internalType": "uint256",
          "name": "tokenId",
          "type": "uint256"
        },
        {
          "internalType": "bytes",
          "name": "_data",
          "type": "bytes"
        }
      ],
      "name": "safeTransferFrom",
      "outputs": [],
      "stateMutability": "nonpayable",
      "type": "function"
    },
    {
      "inputs": [
        {
          "internalType": "address",
          "name": "operator",
          "type": "address"
        },
        {
          "internalType": "bool",
          "name": "approved",
          "type": "bool"
        }
      ],
      "name": "setApprovalForAll",
      "outputs": [],
      "stateMutability": "nonpayable",
      "type": "function"
    },
    {
      "inputs": [
        {
          "internalType": "bytes4",
          "name": "interfaceId",
          "type": "bytes4"
        }
      ],
      "name": "supportsInterface",
      "outputs": [
        {
          "internalType": "bool",
          "name": "",
          "type": "bool"
        }
      ],
      "stateMutability": "view",
      "type": "function"
    },
    {
      "inputs": [],
      "name": "symbol",
      "outputs": [
        {
          "internalType": "string",
          "name": "",
          "type": "string"
        }
      ],
      "stateMutability": "view",
      "type": "function"
    },
    {
      "inputs": [
        {
          "internalType": "uint256",
          "name": "tokenId",
          "type": "uint256"
        }
      ],
      "name": "tokenURI",
      "outputs": [
        {
          "internalType": "string",
          "name": "",
          "type": "string"
        }
      ],
      "stateMutability": "view",
      "type": "function"
    },
    {
      "inputs": [
        {
          "internalType": "address",
          "name": "from",
          "type": "address"
        },
        {
          "internalType": "address",
          "name": "to",
          "type": "address"
        },
        {
          "internalType": "uint256",
          "name": "tokenId",
          "type": "uint256"
        }
      ],
      "name": "transferFrom",
      "outputs": [],
      "stateMutability": "nonpayable",
      "type": "function"
    },
    {
      "inputs": [
        {
          "internalType": "address",
          "name": "to",
          "type": "address"
        },
        {
          "internalType": "string",
          "name": "metadataURI",
          "type": "string"
        }
      ],
      "name": "mintWithMetadata",
      "outputs": [
        {
          "internalType": "uint256",
          "name": "",
          "type": "uint256"
        }
      ],
      "stateMutability": "nonpayable",
      "type": "function"
    }
  ],
  "bytecode": "0x608060405260006007553480156200001657600080fd5b5060405162002e8238038062002e8283398181016040528101906200003c91906200019c565b81818160009080519060200190620000569291906200007a565b5080600190805190602001906200006f9291906200007a565b505050505062000340565b8280546200008890620002ac565b90600052602060002090601f016020900481019282620000ac5760008555620000f8565b82601f10620000c757805160ff1916838001178555620000f8565b82800160010185558215620000f8579182015b82811115620000f7578251825591602001919060010190620000da565b5b5090506200010791906200010b565b5090565b5b80821115620001265760008160009055506001016200010c565b5090565b6000620001416200013b8462000243565b6200020f565b9050828152602081018484840111156200015a57600080fd5b6200016784828562000276565b509392505050565b600082601f8301126200018157600080fd5b8151620001938482602086016200012a565b91505092915050565b60008060408385031215620001b057600080fd5b600083015167ffffffffffffffff811115620001cb57600080fd5b620001d9858286016200016f565b925050602083015167ffffffffffffffff811115620001f757600080fd5b62000205858286016200016f565b9150509250929050565b6000604051905081810181811067ffffffffffffffff8211171562000239576200023862000311565b5b8060405250919050565b600067ffffffffffffffff82111562000261576200026062000311565b5b601f19601f8301169050602081019050919050565b60005b838110156200029657808201518184015260208101905062000279565b83811115620002a6576000848401525b50505050565b60006002820490506001821680620002c557607f821691505b60208210811415620002dc57620002db620002e2565b5b50919050565b7f4e487b7100000000000000000000000000000000000000000000000000000000600052602260045260246000fd5b7f4e487b7100000000000000000000000000000000000000000000000000000000600052604160045260246000fd5b612b3280620003506000396000f3fe608060405234801561001057600080fd5b50600436106100ea5760003560e01c80636352211e1161008c578063a22cb46511610066578063a22cb4651461026f578063b88d4fde1461028b578063c87b56dd146102a7578063e985e9c5146102d7576100ea565b80636352211e146101f157806370a082311461022157806395d89b4114610251576100ea565b8063095ea7b3116100c8578063095ea7b31461016d57806323b872dd1461018957806342842e0e146101a5578063471d06f4146101c1576100ea565b806301ffc9a7146100ef57806306fdde031461011f578063081812fc1461013d575b600080fd5b61010960048036038101906101049190611c66565b610307565b604051610116919061246a565b60405180910390f35b6101276103e9565b6040516101349190612485565b60405180910390f35b61015760048036038101906101529190611cb8565b61047b565b6040516101649190612403565b60405180910390f35b61018760048036038101906101829190611c2a565b610500565b005b6101a3600480360381019061019e9190611ad0565b610618565b005b6101bf60048036038101906101ba9190611ad0565b610678565b005b6101db60048036038101906101d69190611bd6565b610698565b6040516101e891906126c7565b60405180910390f35b61020b60048036038101906102069190611cb8565b61070f565b6040516102189190612403565b60405180910390f35b61023b60048036038101906102369190611a6b565b6107c1565b60405161024891906126c7565b60405180910390f35b610259610879565b6040516102669190612485565b60405180910390f35b61028960048036038101906102849190611b9a565b61090b565b005b6102a560048036038101906102a09190611b1f565b610921565b005b6102c160048036038101906102bc9190611cb8565b610983565b6040516102ce9190612485565b60405180910390f35b6102f160048036038101906102ec9190611a94565b610ad5565b6040516102fe919061246a565b60405180910390f35b60007f80ac58cd000000000000000000000000000000000000000000000000000000007bffffffffffffffffffffffffffffffffffffffffffffffffffffffff1916827bffffffffffffffffffffffffffffffffffffffffffffffffffffffff191614806103d257507f5b5e139f000000000000000000000000000000000000000000000000000000007bffffffffffffffffffffffffffffffffffffffffffffffffffffffff1916827bffffffffffffffffffffffffffffffffffffffffffffffffffffffff1916145b806103e257506103e182610b69565b5b9050919050565b6060600080546103f890612927565b80601f016020809104026020016040519081016040528092919081815260200182805461042490612927565b80156104715780601f1061044657610100808354040283529160200191610471565b820191906000526020600020905b81548152906001019060200180831161045457829003601f168201915b5050505050905090565b600061048682610bd3565b6104c5576040517f08c379a00000000000000000000000000000000000000000000000000000000081526004016104bc90612627565b60405180910390fd5b6004600083815260200190815260200160002060009054906101000a900473ffffffffffffffffffffffffffffffffffffffff169050919050565b600061050b8261070f565b90508073ffffffffffffffffffffffffffffffffffffffff168373ffffffffffffffffffffffffffffffffffffffff16141561057c576040517f08c379a000000000000000000000000000000000000000000000000000000000815260040161057390612687565b60405180910390fd5b8073ffffffffffffffffffffffffffffffffffffffff1661059b610c3f565b73ffffffffffffffffffffffffffffffffffffffff1614806105ca57506105c9816105c4610c3f565b610ad5565b5b610609576040517f08c379a000000000000000000000000000000000000000000000000000000000815260040161060090612547565b60405180910390fd5b6106138383610c47565b505050565b610629610623610c3f565b82610d00565b610668576040517f08c379a000000000000000000000000000000000000000000000000000000000815260040161065f906126a7565b60405180910390fd5b610673838383610dde565b505050565b61069383838360405180602001604052806000815250610921565b505050565b6000808251116106dd576040517f08c379a00000000000000000000000000000000000000000000000000000000081526004016106d4906125e7565b60405180910390fd5b60006106e761103a565b90506106f38482611050565b6106fd818461121e565b610705611292565b8091505092915050565b6000806002600084815260200190815260200160002060009054906101000a900473ffffffffffffffffffffffffffffffffffffffff169050600073ffffffffffffffffffffffffffffffffffffffff168173ffffffffffffffffffffffffffffffffffffffff1614156107b8576040517f08c379a00000000000000000000000000000000000000000000000000000000081526004016107af90612587565b60405180910390fd5b80915050919050565b60008073ffffffffffffffffffffffffffffffffffffffff168273ffffffffffffffffffffffffffffffffffffffff161415610832576040517f08c379a000000000000000000000000000000000000000000000000000000000815260040161082990612567565b60405180910390fd5b600360008373ffffffffffffffffffffffffffffffffffffffff1673ffffffffffffffffffffffffffffffffffffffff168152602001908152602001600020549050919050565b60606001805461088890612927565b80601f01602080910402602001604051908101604052809291908181526020018280546108b490612927565b80156109015780601f106108d657610100808354040283529160200191610901565b820191906000526020600020905b8154815290600101906020018083116108e457829003601f168201915b5050505050905090565b61091d610916610c3f565b83836112ac565b5050565b61093261092c610c3f565b83610d00565b610971576040517f08c379a0000000000000000000000000000000000000000000000000000000008152600401610968906126a7565b60405180910390fd5b61097d84848484611419565b50505050565b606061098e82610bd3565b6109cd576040517f08c379a00000000000000000000000000000000000000000000000000000000081526004016109c490612607565b60405180910390fd5b60006006600084815260200190815260200160002080546109ed90612927565b80601f0160208091040260200160405190810160405280929190818152602001828054610a1990612927565b8015610a665780601f10610a3b57610100808354040283529160200191610a66565b820191906000526020600020905b815481529060010190602001808311610a4957829003601f168201915b505050505090506000610a77611475565b9050600081511415610a8d578192505050610ad0565b600082511115610ac2578082604051602001610aaa9291906123df565b60405160208183030381529060405292505050610ad0565b610acb8461148c565b925050505b919050565b6000600560008473ffffffffffffffffffffffffffffffffffffffff1673ffffffffffffffffffffffffffffffffffffffff16815260200190815260200160002060008373ffffffffffffffffffffffffffffffffffffffff1673ffffffffffffffffffffffffffffffffffffffff16815260200190815260200160002060009054906101000a900460ff16905092915050565b60007f01ffc9a7000000000000000000000000000000000000000000000000000000007bffffffffffffffffffffffffffffffffffffffffffffffffffffffff1916827bffffffffffffffffffffffffffffffffffffffffffffffffffffffff1916149050919050565b60008073ffffffffffffffffffffffffffffffffffffffff166002600084815260200190815260200160002060009054906101000a900473ffffffffffffffffffffffffffffffffffffffff1673ffffffffffffffffffffffffffffffffffffffff1614159050919050565b600033905090565b816004600083815260200190815260200160002060006101000a81548173ffffffffffffffffffffffffffffffffffffffff021916908373ffffffffffffffffffffffffffffffffffffffff160217905550808273ffffffffffffffffffffffffffffffffffffffff16610cba8361070f565b73ffffffffffffffffffffffffffffffffffffffff167f8c5be1e5ebec7d5bd14f71427d1e84f3dd0314c0f7b2291e5b200ac8c7c3b92560405160405180910390a45050565b6000610d0b82610bd3565b610d4a576040517f08c379a0000000000000000000000000000000000000000000000000000000008152600401610d4190612527565b60405180910390fd5b6000610d558361070f565b90508073ffffffffffffffffffffffffffffffffffffffff168473ffffffffffffffffffffffffffffffffffffffff161480610dc457508373ffffffffffffffffffffffffffffffffffffffff16610dac8461047b565b73ffffffffffffffffffffffffffffffffffffffff16145b80610dd55750610dd48185610ad5565b5b91505092915050565b8273ffffffffffffffffffffffffffffffffffffffff16610dfe8261070f565b73ffffffffffffffffffffffffffffffffffffffff1614610e54576040517f08c379a0000000000000000000000000000000000000000000000000000000008152600401610e4b90612647565b60405180910390fd5b600073ffffffffffffffffffffffffffffffffffffffff168273ffffffffffffffffffffffffffffffffffffffff161415610ec4576040517f08c379a0000000000000000000000000000000000000000000000000000000008152600401610ebb906124e7565b60405180910390fd5b610ecf838383611533565b610eda600082610c47565b6001600360008573ffffffffffffffffffffffffffffffffffffffff1673ffffffffffffffffffffffffffffffffffffffff1681526020019081526020016000206000828254610f2a919061283d565b925050819055506001600360008473ffffffffffffffffffffffffffffffffffffffff1673ffffffffffffffffffffffffffffffffffffffff1681526020019081526020016000206000828254610f8191906127b6565b92505081905550816002600083815260200190815260200160002060006101000a81548173ffffffffffffffffffffffffffffffffffffffff021916908373ffffffffffffffffffffffffffffffffffffffff160217905550808273ffffffffffffffffffffffffffffffffffffffff168473ffffffffffffffffffffffffffffffffffffffff167fddf252ad1be2c89b69c2b068fc378daa952ba7f163c4a11628f55a4df523b3ef60405160405180910390a4505050565b6000600160075461104b91906127b6565b905090565b600073ffffffffffffffffffffffffffffffffffffffff168273ffffffffffffffffffffffffffffffffffffffff1614156110c0576040517f08c379a00000000000000000000000000000000000000000000000000000000081526004016110b7906125c7565b60405180910390fd5b6110c981610bd3565b15611109576040517f08c379a0000000000000000000000000000000000000000000000000000000008152600401611100906124c7565b60405180910390fd5b61111560008383611533565b6001600360008473ffffffffffffffffffffffffffffffffffffffff1673ffffffffffffffffffffffffffffffffffffffff168152602001908152602001600020600082825461116591906127b6565b92505081905550816002600083815260200190815260200160002060006101000a81548173ffffffffffffffffffffffffffffffffffffffff021916908373ffffffffffffffffffffffffffffffffffffffff160217905550808273ffffffffffffffffffffffffffffffffffffffff16600073ffffffffffffffffffffffffffffffffffffffff167fddf252ad1be2c89b69c2b068fc378daa952ba7f163c4a11628f55a4df523b3ef60405160405180910390a45050565b61122782610bd3565b611266576040517f08c379a000000000000000000000000000000000000000000000000000000000815260040161125d906125a7565b60405180910390fd5b8060066000848152602001908152602001600020908051906020019061128d92919061188f565b505050565b600760008154809291906112a590612959565b9190505550565b8173ffffffffffffffffffffffffffffffffffffffff168373ffffffffffffffffffffffffffffffffffffffff16141561131b576040517f08c379a000000000000000000000000000000000000000000000000000000000815260040161131290612507565b60405180910390fd5b80600560008573ffffffffffffffffffffffffffffffffffffffff1673ffffffffffffffffffffffffffffffffffffffff16815260200190815260200160002060008473ffffffffffffffffffffffffffffffffffffffff1673ffffffffffffffffffffffffffffffffffffffff16815260200190815260200160002060006101000a81548160ff0219169083151502179055508173ffffffffffffffffffffffffffffffffffffffff168373ffffffffffffffffffffffffffffffffffffffff167f17307eab39ab6107e8899845ad3d59bd9653f200f220920489ca2b5937696c318360405161140c919061246a565b60405180910390a3505050565b611424848484610dde565b61143084848484611538565b61146f576040517f08c379a0000000000000000000000000000000000000000000000000000000008152600401611466906124a7565b60405180910390fd5b50505050565b606060405180602001604052806000815250905090565b606061149782610bd3565b6114d6576040517f08c379a00000000000000000000000000000000000000000000000000000000081526004016114cd90612667565b60405180910390fd5b60006114e0611475565b90506000815111611500576040518060200160405280600081525061152b565b8061150a846116cf565b60405160200161151b9291906123df565b6040516020818303038152906040525b915050919050565b505050565b60006115598473ffffffffffffffffffffffffffffffffffffffff1661187c565b156116c2578373ffffffffffffffffffffffffffffffffffffffff1663150b7a02611582610c3f565b8786866040518563ffffffff1660e01b81526004016115a4949392919061241e565b602060405180830381600087803b1580156115be57600080fd5b505af19250505080156115ef57506040513d601f19601f820116820180604052508101906115ec9190611c8f565b60015b611672573d806000811461161f576040519150601f19603f3d011682016040523d82523d6000602084013e611624565b606091505b5060008151141561166a576040517f08c379a0000000000000000000000000000000000000000000000000000000008152600401611661906124a7565b60405180910390fd5b805181602001fd5b63150b7a0260e01b7bffffffffffffffffffffffffffffffffffffffffffffffffffffffff1916817bffffffffffffffffffffffffffffffffffffffffffffffffffffffff1916149150506116c7565b600190505b949350505050565b60606000821415611717576040518060400160405280600181526020017f30000000000000000000000000000000000000000000000000000000000000008152509050611877565b600082905060005b6000821461174957808061173290612959565b915050600a82611742919061280c565b915061171f565b60008167ffffffffffffffff81111561178b577f4e487b7100000000000000000000000000000000000000000000000000000000600052604160045260246000fd5b6040519080825280601f01601f1916602001820160405280156117bd5781602001600182028036833780820191505090505b5090505b60008514611870576001826117d6919061283d565b9150600a856117e591906129a2565b60306117f191906127b6565b60f81b81838151811061182d577f4e487b7100000000000000000000000000000000000000000000000000000000600052603260045260246000fd5b60200101907effffffffffffffffffffffffffffffffffffffffffffffffffffffffffffff1916908160001a905350600a85611869919061280c565b94506117c1565b8093505050505b919050565b600080823b905060008111915050919050565b82805461189b90612927565b90600052602060002090601f0160209004810192826118bd5760008555611904565b82601f106118d657805160ff1916838001178555611904565b82800160010185558215611904579182015b828111156119035782518255916020019190600101906118e8565b5b5090506119119190611915565b5090565b5b8082111561192e576000816000905550600101611916565b5090565b600061194561194084612713565b6126e2565b90508281526020810184848401111561195d57600080fd5b6119688482856128e5565b509392505050565b600061198361197e84612743565b6126e2565b90508281526020810184848401111561199b57600080fd5b6119a68482856128e5565b509392505050565b6000813590506119bd81612aa0565b92915050565b6000813590506119d281612ab7565b92915050565b6000813590506119e781612ace565b92915050565b6000815190506119fc81612ace565b92915050565b600082601f830112611a1357600080fd5b8135611a23848260208601611932565b91505092915050565b600082601f830112611a3d57600080fd5b8135611a4d848260208601611970565b91505092915050565b600081359050611a6581612ae5565b92915050565b600060208284031215611a7d57600080fd5b6000611a8b848285016119ae565b91505092915050565b60008060408385031215611aa757600080fd5b6000611ab5858286016119ae565b9250506020611ac6858286016119ae565b9150509250929050565b600080600060608486031215611ae557600080fd5b6000611af3868287016119ae565b9350506020611b04868287016119ae565b9250506040611b1586828701611a56565b9150509250925092565b60008060008060808587031215611b3557600080fd5b6000611b43878288016119ae565b9450506020611b54878288016119ae565b9350506040611b6587828801611a56565b925050606085013567ffffffffffffffff811115611b8257600080fd5b611b8e87828801611a02565b91505092959194509250565b60008060408385031215611bad57600080fd5b6000611bbb858286016119ae565b9250506020611bcc858286016119c3565b9150509250929050565b60008060408385031215611be957600080fd5b6000611bf7858286016119ae565b925050602083013567ffffffffffffffff811115611c1457600080fd5b611c2085828601611a2c565b9150509250929050565b60008060408385031215611c3d57600080fd5b6000611c4b858286016119ae565b9250506020611c5c85828601611a56565b9150509250929050565b600060208284031215611c7857600080fd5b6000611c86848285016119d8565b91505092915050565b600060208284031215611ca157600080fd5b6000611caf848285016119ed565b91505092915050565b600060208284031215611cca57600080fd5b6000611cd884828501611a56565b91505092915050565b611cea81612871565b82525050565b611cf981612883565b82525050565b6000611d0a82612773565b611d148185612789565b9350611d248185602086016128f4565b611d2d81612a8f565b840191505092915050565b6000611d438261277e565b611d4d818561279a565b9350611d5d8185602086016128f4565b611d6681612a8f565b840191505092915050565b6000611d7c8261277e565b611d8681856127ab565b9350611d968185602086016128f4565b80840191505092915050565b6000611daf60328361279a565b91507f4552433732313a207472616e7366657220746f206e6f6e20455243373231526560008301527f63656976657220696d706c656d656e74657200000000000000000000000000006020830152604082019050919050565b6000611e15601c8361279a565b91507f4552433732313a20746f6b656e20616c7265616479206d696e746564000000006000830152602082019050919050565b6000611e5560248361279a565b91507f4552433732313a207472616e7366657220746f20746865207a65726f2061646460008301527f72657373000000000000000000000000000000000000000000000000000000006020830152604082019050919050565b6000611ebb60198361279a565b91507f4552433732313a20617070726f766520746f2063616c6c6572000000000000006000830152602082019050919050565b6000611efb602c8361279a565b91507f4552433732313a206f70657261746f7220717565727920666f72206e6f6e657860008301527f697374656e7420746f6b656e00000000000000000000000000000000000000006020830152604082019050919050565b6000611f6160388361279a565b91507f4552433732313a20617070726f76652063616c6c6572206973206e6f74206f7760008301527f6e6572206e6f7220617070726f76656420666f7220616c6c00000000000000006020830152604082019050919050565b6000611fc7602a8361279a565b91507f4552433732313a2062616c616e636520717565727920666f7220746865207a6560008301527f726f2061646472657373000000000000000000000000000000000000000000006020830152604082019050919050565b600061202d60298361279a565b91507f4552433732313a206f776e657220717565727920666f72206e6f6e657869737460008301527f656e7420746f6b656e00000000000000000000000000000000000000000000006020830152604082019050919050565b6000612093602e8361279a565b91507f45524337323155524953746f726167653a2055524920736574206f66206e6f6e60008301527f6578697374656e7420746f6b656e0000000000000000000000000000000000006020830152604082019050919050565b60006120f960208361279a565b91507f4552433732313a206d696e7420746f20746865207a65726f20616464726573736000830152602082019050919050565b6000612139601e8361279a565b91507f4d6574616461746120555249206d757374206e6f7420626520656d70747900006000830152602082019050919050565b600061217960318361279a565b91507f45524337323155524953746f726167653a2055524920717565727920666f722060008301527f6e6f6e6578697374656e7420746f6b656e0000000000000000000000000000006020830152604082019050919050565b60006121df602c8361279a565b91507f4552433732313a20617070726f76656420717565727920666f72206e6f6e657860008301527f697374656e7420746f6b656e00000000000000000000000000000000000000006020830152604082019050919050565b600061224560298361279a565b91507f4552433732313a207472616e73666572206f6620746f6b656e2074686174206960008301527f73206e6f74206f776e00000000000000000000000000000000000000000000006020830152604082019050919050565b60006122ab602f8361279a565b91507f4552433732314d657461646174613a2055524920717565727920666f72206e6f60008301527f6e6578697374656e7420746f6b656e00000000000000000000000000000000006020830152604082019050919050565b600061231160218361279a565b91507f4552433732313a20617070726f76616c20746f2063757272656e74206f776e6560008301527f72000000000000000000000000000000000000000000000000000000000000006020830152604082019050919050565b600061237760318361279a565b91507f4552433732313a207472616e736665722063616c6c6572206973206e6f74206f60008301527f776e6572206e6f7220617070726f7665640000000000000000000000000000006020830152604082019050919050565b6123d9816128db565b82525050565b60006123eb8285611d71565b91506123f78284611d71565b91508190509392505050565b60006020820190506124186000830184611ce1565b92915050565b60006080820190506124336000830187611ce1565b6124406020830186611ce1565b61244d60408301856123d0565b818103606083015261245f8184611cff565b905095945050505050565b600060208201905061247f6000830184611cf0565b92915050565b6000602082019050818103600083015261249f8184611d38565b905092915050565b600060208201905081810360008301526124c081611da2565b9050919050565b600060208201905081810360008301526124e081611e08565b9050919050565b6000602082019050818103600083015261250081611e48565b9050919050565b6000602082019050818103600083015261252081611eae565b9050919050565b6000602082019050818103600083015261254081611eee565b9050919050565b6000602082019050818103600083015261256081611f54565b9050919050565b6000602082019050818103600083015261258081611fba565b9050919050565b600060208201905081810360008301526125a081612020565b9050919050565b600060208201905081810360008301526125c081612086565b9050919050565b600060208201905081810360008301526125e0816120ec565b9050919050565b600060208201905081810360008301526126008161212c565b9050919050565b600060208201905081810360008301526126208161216c565b9050919050565b60006020820190508181036000830152612640816121d2565b9050919050565b6000602082019050818103600083015261266081612238565b9050919050565b600060208201905081810360008301526126808161229e565b9050919050565b600060208201905081810360008301526126a081612304565b9050919050565b600060208201905081810360008301526126c08161236a565b9050919050565b60006020820190506126dc60008301846123d0565b92915050565b6000604051905081810181811067ffffffffffffffff8211171561270957612708612a60565b5b8060405250919050565b600067ffffffffffffffff82111561272e5761272d612a60565b5b601f19601f8301169050602081019050919050565b600067ffffffffffffffff82111561275e5761275d612a60565b5b601f19601f8301169050602081019050919050565b600081519050919050565b600081519050919050565b600082825260208201905092915050565b600082825260208201905092915050565b600081905092915050565b60006127c1826128db565b91506127cc836128db565b9250827fffffffffffffffffffffffffffffffffffffffffffffffffffffffffffffffff03821115612801576128006129d3565b5b828201905092915050565b6000612817826128db565b9150612822836128db565b92508261283257612831612a02565b5b828204905092915050565b6000612848826128db565b9150612853836128db565b925082821015612866576128656129d3565b5b828203905092915050565b600061287c826128bb565b9050919050565b60008115159050919050565b60007fffffffff0000000000000000000000000000000000000000000000000000000082169050919050565b600073ffffffffffffffffffffffffffffffffffffffff82169050919050565b6000819050919050565b82818337600083830152505050565b60005b838110156129125780820151818401526020810190506128f7565b83811115612921576000848401525b50505050565b6000600282049050600182168061293f57607f821691505b6020821081141561295357612952612a31565b5b50919050565b6000612964826128db565b91507fffffffffffffffffffffffffffffffffffffffffffffffffffffffffffffffff821415612997576129966129d3565b5b600182019050919050565b60006129ad826128db565b91506129b8836128db565b9250826129c8576129c7612a02565b5b828206905092915050565b7f4e487b7100000000000000000000000000000000000000000000000000000000600052601160045260246000fd5b7f4e487b7100000000000000000000000000000000000000000000000000000000600052601260045260246000fd5b7f4e487b7100000000000000000000000000000000000000000000000000000000600052602260045260246000fd5b7f4e487b7100000000000000000000000000000000000000000000000000000000600052604160045260246000fd5b6000601f19601f8301169050919050565b612aa981612871565b8114612ab457600080fd5b50565b612ac081612883565b8114612acb57600080fd5b50565b612ad78161288f565b8114612ae257600080fd5b50565b612aee816128db565b8114612af957600080fd5b5056fea2646970667358221220ac54599be3798133f4751e92721f3556d2a82c955350457223b4ff120ed02a3564736f6c63430008000033",
  "immutableReferences": {},
  "source": "// MyNFT.sol\r\n// SPDX-License-Identifier: MIT\r\npragma solidity ^0.8.0;\r\n\r\nimport \"@openzeppelin/contracts/token/ERC721/ERC721.sol\";\r\nimport \"@openzeppelin/contracts/token/ERC721/extensions/ERC721URIStorage.sol\";\r\n\r\ncontract MyNFT is ERC721URIStorage {\r\n    uint256 private _currentTokenId = 0;\r\n\r\n    constructor(string memory name, string memory symbol) ERC721(name, symbol) {}\r\n\r\n    function mintWithMetadata(address to, string memory metadataURI) external returns (uint256) {\r\n    require(bytes(metadataURI).length > 0, \"Metadata URI must not be empty\");\r\n    uint256 newTokenId = _getNextTokenId();\r\n    _mint(to, newTokenId);\r\n    _setTokenURI(newTokenId, metadataURI);\r\n    _incrementTokenId();\r\n    return newTokenId;\r\n}\r\n\r\n\r\n    function _getNextTokenId() private view returns (uint256) {\r\n        return _currentTokenId + 1;\r\n    }\r\n\r\n    function _incrementTokenId() private {\r\n        _currentTokenId++;\r\n    }\r\n}\r\n",
  "sourcePath": "C:\\Users\\\\test721\\contracts\\MyNFT.sol",
  "compiler": {
    "name": "solc",
    "version": "0.8.0+commit.c7dfd78e.Emscripten.clang"
  },
  "schemaVersion": "3.4.16",
  "updatedAt": "2024-02-20T16:35:50.528Z",
  "devdoc": {
    "kind": "dev",
    "methods": {
      "approve(address,uint256)": {
        "details": "See {IERC721-approve}."
      },
      "balanceOf(address)": {
        "details": "See {IERC721-balanceOf}."
      },
      "getApproved(uint256)": {
        "details": "See {IERC721-getApproved}."
      },
      "isApprovedForAll(address,address)": {
        "details": "See {IERC721-isApprovedForAll}."
      },
      "name()": {
        "details": "See {IERC721Metadata-name}."
      },
      "ownerOf(uint256)": {
        "details": "See {IERC721-ownerOf}."
      },
      "safeTransferFrom(address,address,uint256)": {
        "details": "See {IERC721-safeTransferFrom}."
      },
      "safeTransferFrom(address,address,uint256,bytes)": {
        "details": "See {IERC721-safeTransferFrom}."
      },
      "setApprovalForAll(address,bool)": {
        "details": "See {IERC721-setApprovalForAll}."
      },
      "supportsInterface(bytes4)": {
        "details": "See {IERC165-supportsInterface}."
      },
      "symbol()": {
        "details": "See {IERC721Metadata-symbol}."
      },
      "tokenURI(uint256)": {
        "details": "See {IERC721Metadata-tokenURI}."
      },
      "transferFrom(address,address,uint256)": {
        "details": "See {IERC721-transferFrom}."
      }
    },
    "version": 1
  },
  "userdoc": {
    "kind": "user",
    "methods": {},
    "version": 1
  }
}